:020000040000FA
:0600000025EF29F01200BB
:020006001200E6
:0600080022EF02F01200DD
:02000E00860E5C
:06001000A40EC20EE00E7A
:0800180077B496EF02F092EFBD
:0400200027F01200B3
:0C002400030091520000C401000008001D
:1000300000008E520000FC000000030000007C5213
:0A0040000000A801000012000000FB
:06004A0093988A98939A36
:100050008A9A7F9E7F9C2E0EF66E110EF76E090017
:10006000F5CFD4F10A00F5CFD5F10101D407000E88
:10007000D55BD4C174FF7F8001010101CA51010128
:10008000D425E96E01010101CB510101D521EA6EB0
:1000900073CFEFFF0101000ED880D455000ED55567
:1000A000E4E312000001FC51715C01E184D0C00E58
:1000B00071140CE07150E66EE66A080EE66EF4EC20
:1000C00012F0E552E552E5523F0E711671AA0BD0BF
:1000D0007150E66EE66A090EE66EF4EC12F0E55237
:1000E000E552E5520DD0010167A30AD07150E66ECA
:1000F000E66A090EE66E59EC13F0E552E552E55258
:1001000071A80BD07150E66EE66A0A0EE66EF4EC4A
:1001100012F0E552E552E55217D0010167A514D05F
:100120007150E66EE66A0A0EE66E59EC13F0E5527F
:10013000E552E552000EE66EE66A0C0EE66E59ECEC
:1001400013F0E552E552E55271A60BD07150E66E00
:10015000E66A0B0EE66EF4EC12F0E552E552E5525B
:100160000DD0010167A70AD07150E66EE66A0B0E4A
:10017000E66E59EC13F0E552E552E552070E7114A4
:100180000BE07150E66EE66A1C0EE66EF4EC12F0BF
:10019000E552E552E5520DD0010169A90AD071502E
:1001A000E66EE66A1C0EE66E59EC13F0E552E55277
:1001B000E55271CFFCF0FF0E1F5C1EE1020E1E5CCB
:1001C0000FE3030E1E5C0CE2020E1E5CE66EE66A96
:1001D000180EE66EF4EC12F0E552E552E5520AD044
:1001E0001E50E66EE66A190EE66EF4EC12F0E55269
:1001F000E552E5521F6A0ED0FE0E1F5C0BE11E5049
:10020000E66EE66A1B0EE66EF4EC12F0E552E5527D
:10021000E5521F6A7FB23DD00001FD51FE110AE197
:100220002E0EF66E110EF76E0900F5CFFDF00A00E6
:10023000F5CFFEF00001FD07000EFE5BFDC074FF70
:100240007F9E7F9C7F8001010101CA510001FD2535
:10025000E96E01010101CB510001FE21EA6EEF5070
:10026000735C17E001010101CA510001FD25E96E2F
:1002700001010101CB510001FE21EA6EEF50736EC6
:100280007F84F29E550E7E6EAA0E7E6E7F82F28E67
:100290007F941200C7EC05F00001D86FD8C0D2F1EE
:1002A0002D0EF66E110EF76E0800F5CFD3F1010199
:1002B000D25108E00101D2517F0804E30101D3517A
:1002C000070819E20101D251000EF3500101D311C8
:1002D000E66EE66A050EE66EF4EC12F0E552E552C3
:1002E000E5520101010ED26F0101D351070803E26B
:1002F0000101010ED36F12001F6A800E6F6EE00EB7
:100300006E14800801E0FBD70101D351050DF3CF36
:10031000F6FFF4CFF7FF220EF626520EF722080062
:10032000F504106E0101D351050DF3CFF6FFF4CFA4
:10033000F7FF220EF626520EF722F62A000EF722BB
:100340000800F504400DF35010100E01436F010139
:10035000D351050DF3CFF6FFF4CFF7FF220EF626AB
:10036000520EF722020EF626000EF7220800F504C0
:10037000106E0101D351050DF3CFF6FFF4CFF7FF57
:10038000220EF626520EF722030EF626000EF72254
:100390000800F504080DF350800910100E01446F99
:1003A0000101D351050DF3CFF6FFF4CFF7FF220E75
:1003B000F626520EF722040EF626000EF72208004B
:1003C000F5040E01456F93949386609E0F01309F54
:1003D0000F0120970F0110970F010097766A776A37
:1003E000786A200E706E240E606E0F01200E306F42
:1003F0000E01E06B0E01E16B0E01E46B0E01E56B8B
:100400000E01E86B0E01E96B0E01EC6B0E01ED6B5A
:100410000E01F06B0E01F16B0E01F46B0E01F56B2A
:100420000E01F86B0E01F96B0E01FC6B0E01FD6BFA
:100430006F6AE00E6E1401E0FCD7070E766E030EB5
:10044000786E1200DACFE4FFE2CFDAFFE9CFE4FF03
:10045000EACFE4FF6FCFE4FFE65277A005D07790B4
:100460006F866F846F9204D077926F866F946F82DD
:1004700001EE00F01D6AEE50625C04E1EF50615C39
:1004800001E108D00A0EE926000EEA221D2A080E14
:100490001D5CF1E1080E1D5C01E33DD00F0EEC1474
:1004A0001F6E080809E30F0E65141F5C05E0FF0EC0
:1004B0001F6E1D501E6E2FD0100EEF1408E0200E80
:1004C000EF1405E0FE0E1F6E1D501E6E24D0EE8848
:1004D0000F0E651420E01F6E66CFEEFF1F4E1BD07F
:1004E00067CFEEFF1F4E17D068CFEEFF1F4E13D021
:1004F00069CFEEFF1F4E0FD06ACFEEFF1F4E0BD01D
:100500006BCFEEFF1F4E07D06CCFEEFF1F4E03D018
:100510006DCFEEFF1F6A609EE552E5CF6FFFE5CF1E
:10052000EAFFE5CFE9FFE5CFDAFF1100D8CFE4FF1E
:10053000E0CFE4FFE46EDACFE4FFE2CFDAFFE9CF09
:10054000E4FFEACFE4FFF6CFE4FFF7CFE4FFF5CF17
:10055000E4FFF3CFE4FFF4CFE4FFFACFE4FF00EED3
:1005600000F0100EE80403E3EECFE4FFFBD700EE4B
:1005700010F00D0EE80403E3EECFE4FFFBD7E652E4
:10058000779401015851000801E3CBD00F010F010E
:100590002051080B01E0C5D0010158070101D66BBD
:1005A000080E0101D65D01E3BCD00101D6510B0D4F
:1005B000F3CFE9FFF4CFEAFF600EE926000EEA224E
:1005C000EE52EE52EF50100B01E1A8D00101D651CE
:1005D0000B0DF3CFE9FFF4CFEAFF600EE926000E22
:1005E000EA22EE52EE52EF50200B19E001015E516B
:1005F0005F1115E001015C5101015E5D01015D517A
:1006000001015F590CE20101D651E66EE66A0D0E5A
:10061000E66EF4EC12F0E552E552E55270D00101BD
:10062000D6510B0DF3CFE9FFF4CFEAFF600EE926B8
:10063000000EEA22EFCF22FF0101D6510B0DF3CFBE
:10064000E9FFF4CFEAFF600EE926000EEA22010E70
:10065000E926000EEA22EFCF21FF0101D6510B0D52
:10066000F3CFE9FFF4CFEAFF600EE926000EEA229D
:10067000EE52EE52EF500F0B0F01256F0F01255177
:10068000080803E20F01080E256F0F012551E66EE1
:10069000E66A0101D6510B0DF3CFE9FFF4CFEAFF73
:1006A000600EE926000EEA22030EE926000EEA2279
:1006B000E9CF20F0EACF21F020C0E6FF21C0E6FF1D
:1006C000260EE66E0F0EE66E69EC28F0226E060E20
:1006D000E15E22500101D6510B0DF3CFE9FFF4CFBB
:1006E000EAFF600EE926000EEA220F01EF50080B28
:1006F00002E0258D01D0259D0F01080E206F01011C
:10070000D6510B0DF3CFE9FFF4CFEAFF600EE926D7
:10071000000EEA22EE52EE52EF9803D00101D62BE2
:100720003FD7E55200EE1CF00D0EE80403E3E5CFE1
:10073000EDFFFBD700EE0FF0100EE80403E3E5CF6A
:10074000EDFFFBD7E5CFFAFFE5CFF4FFE5CFF3FFF1
:10075000E5CFF5FFE5CFF7FFE5CFF6FFE5CFEAFF01
:10076000E5CFE9FFE5CFDAFFE550E5CFE0FFE5CFE4
:10077000D8FF1000D9CFE6FFE1CFD9FFFD0EDBCFC8
:10078000F6FFFE0EDBCFF7FF040EF626000EF72273
:100790000800F5CF10F0FA0EDB50D880105408E2B4
:1007A000050E046E056A040E066E050E076ECBD0AC
:1007B000FD0EDBCFF6FFFE0EDBCFF7FF030EF626B6
:1007C000000EF7220800F550070B010808E1010EA2
:1007D000046E056A010E066E060E076EB4D0FD0E9D
:1007E000DBCFF6FFFE0EDBCFF7FF050EF626000E81
:1007F000F7220900F5CF10F00800F5CF11F0000E38
:10080000105C100E115842E3FD0EDBCFF6FFFE0E1A
:10081000DBCFF7FF030EF626000EF7220800F55097
:10082000100B34E0F29EFD0EDBCFF6FFFE0EDBCFA9
:10083000F7FF040EF626000EF7220800F550E66ECC
:10084000E66AFD0EDBCFF6FFFE0EDBCFF7FF050EEF
:10085000F626000EF7220900F5CF10F00800F5CFBC
:1008600011F0126A10C0E6FF11C0E6FF12C0E6FFE9
:10087000FB0EDBCFE6FFFC0EDBCFE6FF94EC28F0AF
:10088000136E070EE15E1350F28E58D0FD0EDBCFD3
:10089000F6FFFE0EDBCFF7FF050EF626000EF72261
:1008A0000900F5CF10F00800F5CF11F0000E105C34
:1008B000100E11583BE2FD0EDBCFF6FFFE0EDBCF34
:1008C000F7FF030EF626000EF7220800F550100B76
:1008D0002DE1F29EFD0EDBCFF6FFFE0EDBCFF7FF24
:1008E000040EF626000EF7220800F550E66EE66AC2
:1008F000FD0EDBCFF6FFFE0EDBCFF7FF050EF62673
:10090000000EF7220900F5CFE6FF0800F5CFE6FF5D
:10091000FB0EDBCFE6FFFC0EDBCFE6FF69EC28F039
:10092000106E060EE15E1050F28E08D0470E046E77
:10093000056A040E066E060E076E05D0046A056A87
:10094000066A076A00D0E552E7CFD9FF1200D9CF77
:10095000E6FFE1CFD9FF040EE126FD0EDBCFF6FF67
:10096000FE0EDBCFF7FF030EF626000EF72208007F
:10097000F550070B02080FE0FD0EDBCFF6FFFE0E71
:10098000DBCFF7FF030EF626000EF7220800F55026
:10099000070B030808E1020E046E056A010E066EDD
:1009A000060E076EEAD0FD0EDBCFF6FFFE0EDBCFA4
:1009B000F7FF040EF626000EF7220800F550F36E3E
:1009C000FA0EDB50F35C08E0100E046E056A070EA9
:1009D000066E060E076ED1D0FB0EDBCFE6FFFC0ED7
:1009E000DBCFE6FFFD0EDBCFE6FFFE0EDBCFE6FF43
:1009F000EFEC20F0E552E552E552E55204C0DEFF8F
:100A000005C0DEFF06C0DEFF07C0DDFFDD52DD52A0
:100A1000D9CFE9FFDACFEAFFEECF10F0EECF11F039
:100A2000EECF12F0EFCF13F0105011101210131080
:100A30000BE0DECF04F0DECF05F0DECF06F0DDCF39
:100A400007F0DD52DD5299D0FD0EDBCFF6FFFE0E32
:100A5000DBCFF7FF050EF626000EF7220900F5CFD3
:100A600010F00800F5CF11F0000E105C100E1158B8
:100A700031E2FD0EDBCFF6FFFE0EDBCFF7FF030EFC
:100A8000F626000EF7220800F550100B23E1F29E27
:100A9000FA0EDBCFE6FFE66AFB0EDBCFE6FFFC0ECD
:100AA000DBCFE6FFFD0EDBCFF6FFFE0EDBCFF7FF61
:100AB000050EF626000EF7220900F5CFE6FF080026
:100AC000F5CFE6FF69EC28F0106E060EE15E1050DF
:100AD000F28E4ED0FD0EDBCFF6FFFE0EDBCFF7FF22
:100AE000050EF626000EF7220900F5CF10F00800DB
:100AF000F5CF11F0000E105C100E115831E3FD0E11
:100B0000DBCFF6FFFE0EDBCFF7FF030EF626000E5F
:100B1000F7220800F550100B23E0F29EFA0EDBCF0F
:100B2000E6FFE66AFB0EDBCFE6FFFC0EDBCFE6FF5F
:100B3000FD0EDBCFF6FFFE0EDBCFF7FF050EF62630
:100B4000000EF7220900F5CFE6FF0800F5CFE6FF1B
:100B5000D0EC25F0106E060EE15E1050F28E08D03B
:100B6000470E046E056A040E066E060E076E05D06B
:100B7000046A056A066A076A00D0040EE15C02E2B4
:0E0B8000E16AE552E16EE552E7CFD9FF1200BF
:020B8E00D9CFBD
:100B9000E6FFE1CFD9FFE65294809482948292845A
:100BA0009286928A050EE66E33EC29F0E552070E26
:100BB0008214DF6E80B4DF8680B6DF8880BADF8A79
:100BC000DF2ADF5000D0E552E552E7CFD9FF12000F
:100BD000C16A0F015D6B0001D92B000EDA23DB2304
:100BE000DC230101CC6BCD6B0101CE6BCF6B01011E
:100BF000D06B939093920101050ED16FD0EC26F04B
:100C0000F6EC1CF012001200F6EC1CF012000001D1
:100C1000DE512BE0680EE66ECCEC20F0E5520009C8
:100C200023E0DE0EE66E000EE66E680EE66EA2ECC7
:100C30001FF0E552E552E552E66A61D9E552000E31
:100C4000E66EE66A8FEC10F0E552E5520001DDA990
:100C50000BD0010EE66E53D9E552010EE66EE66A40
:100C60008FEC10F0E552E55213D0680EE66EFDEC05
:100C70001CF0E55200090CE0DDC0E6FF680EE66EF0
:100C800022EC1DF0E552E5520001010EDE6F8A9064
:100C90000001ED512CE0690EE66ECCEC20F0E5523F
:100CA000000924E0ED0EE66E000EE66E690EE66EBB
:100CB000A2EC1FF0E552E552E552020EE66E1FD996
:100CC000E552020EE66EE66A8FEC10F0E552E55250
:100CD0000001DDA90BD0030EE66E11D9E552030E1B
:100CE000E66EE66A8FEC10F0E552E55213D0690E1D
:100CF000E66EFDEC1CF0E55200090CE0DDC0E6FFFD
:100D0000690EE66E22EC1DF0E552E5520001010E7F
:100D1000ED6F8A921200D9CFE6FFE1CFD9FFE652FC
:100D20000101D151000808E20101D05104E00101A4
:100D3000D1070101D06B01D06ADF010118A989D068
:100D4000F29E19C1DFFF01011899F28ED9CFE9FF98
:100D5000DACFEAFFEF50200B18E0DFCFDDF0000123
:100D6000DE5108E0DDC0E6FF680EE66E22EC1DF005
:100D7000E552E5520001ED5108E0DDC0E6FF690EE5
:100D8000E66E22EC1DF0E552E552D9CFE9FFDACF4D
:100D9000EAFFEF50030B106E0001DD51030B105CF6
:100DA00020E00001DE510DE0D9CFE9FFDACFEAFF04
:100DB000EF50030BE66E680EE66E15EC1FF0E55281
:100DC000E5520001ED510DE0D9CFE9FFDACFEAFF9E
:100DD000EF50030BE66E690EE66E15EC1FF0E55260
:100DE000E552D9CFE9FFDACFEAFFEF500C0BE8422A
:100DF000E842106E0001DD510C0BE842E842105C45
:100E000024E00001DE510FE0D9CFE9FFDACFEAFF9D
:100E1000EF500C0BE842E842E66E680EE66E5CECC2
:100E20001FF0E552E5520001ED510FE0D9CFE9FF87
:100E3000DACFEAFFEF500C0BE842E842E66E690EAB
:100E4000E66E5CEC1FF0E552E552DFCFDDF000010D
:100E5000DD9BE552E552E7CFD9FF12000101CE2B11
:100E6000000ECF230101E80ECE5D030ECF590AE339
:100E70000101CE6BCF6B0101CC2B000ECD23010104
:100E8000010ED06F1200F29EDFC079F0E0C07AF060
:100E9000E1C07BF0E2C07CF0E3C07DF0E4C07EF016
:100EA000F28E1200F29EE7C084F0E8C085F0E9C03F
:100EB00086F0EAC087F0EBC088F0ECC089F0F28ED3
:100EC0001200F29EEEC08FF0EFC090F0F0C091F0F3
:100ED000F1C092F0F2C093F0F3C094F0F28E1200E1
:100EE000F29EF6C09AF0F7C09BF0F8C09CF0F9C0F3
:100EF0009DF0FAC09EF0FBC09FF0F28E1200D9CF99
:100F0000E6FFE1CFD9FF040EF36EFE0EDBCFF4FF58
:100F1000F350F45C28E20E0E126E000E136E000EFB
:100F2000146EFE0EDBCF15F0166A176AD8901536D0
:100F30001636173612501524F36E13501620F46E21
:100F400014501720F86EF4CFF7FFF3CFF6FF090027
:100F5000F5CF10F00800F5CF11F004D011C0FAFF62
:0E0F60001050F96EFBDFE552E7CFD9FF12000B
:020F6E0004502D
:100F70000902F3CF00F0F4CF01F00A02F35001268A
:100F8000000EF420026E04500B02F3500226000EF5
:100F9000F420036E04500C02F3500326055009029E
:100FA000F3500126F4500222000E032205500A02DB
:100FB000F3500226F450032205500B02F35003268F
:100FC00006500902F3500226F450032206500A028A
:0E0FD000F350032607500902F35003261200C7
:020FDE00000E03
:100FE000F36E00EE00F00E0E01D81200EA6002D09F
:0E0FF000EE6AFCD7F350E9601200EE6AFCD7FF
:101000000000000080000000000000000000000060
:1010100043414E6F70656E4E6F646500312E303007
:1010200000312E303000800000003200040000004B
:1010300000000000000000000000000000E80304C1
:1010400000000000000000000000000000000000A0
:1010500001000200060000800500000002000200FE
:1010600000FF080800006000000000000000000011
:101070000000000000000000000000000000000070
:101080000000000580010000FE000000008002005A
:1010900000FE0000000080030000FE000000008051
:1010A000040000FE000000000810020160100301AF
:1010B000601004016000000000000000000000005B
:1010C0000000000000000000001006016010070191
:1010D0006010080160000000000000000000000037
:1010E0000000000000000000001002026010030277
:1010F000601004026000000000000000000000001A
:10110000000000000000000000100602601007024E
:1011100060100802600000000000000000000000F5
:1011200000000000000000000000000000070500B3
:10113000D9CFE6FFE1CFD9FF060EE126010101017B
:10114000AC51020B02E08A8801D08A980101596BE8
:101150004AEC01F0DE6ADD6ADECF10F0DDCF11F07F
:10116000580E105C000E11580EE2DECFE9FFDDCF05
:10117000EAFF000EE926010EEA22EF6ADF2A010EDD
:1011800001E3DB2AE9D7DE6ADD6ADECF10F0DDCFCE
:1011900011F0580E105C000E11580EE2DECFE9FF80
:1011A000DDCFEAFF600EE926000EEA22EF6ADF2AB1
:1011B000010E01E3DB2AE9D7080EF66E100EF76E7A
:1011C0000900F5CF04F00900F5CF05F00900F5CFCF
:1011D00006F00800F5CF07F0E80E096E030E0A6E60
:1011E0000B6A0C6AB7EC28F004C00EF105C00FF1D1
:1011F000080EF66E100EF76E0900F5CF04F0090028
:10120000F5CF05F00900F5CF06F00800F5CF07F09F
:10121000030E096E0A6A0B6A0C6A04C004F005C06A
:1012200005F006C006F007C007F0B7EC07F000C0F5
:1012300004F001C005F002C006F003C007F0D00EB4
:10124000096E070E0A6E0B6A0C6AB7EC28F004C030
:1012500010F105C011F1080EF66E100EF76E0900C0
:10126000F5CF04F00900F5CF05F00900F5CF06F041
:101270000800F5CF07F0D00E096E070E0A6E0B6A54
:101280000C6AB7EC28F004C012F105C013F1040E8B
:10129000F66E100EF76E0900000EF514106E0900C0
:1012A000000EF514116E0900000EF514126E080000
:1012B000400EF514136E105011101210131002E0AE
:1012C000010E01D0000E0101E8B01481E8A01491D4
:1012D0000C0EF66E100EF76E0900F5CF04F0090043
:1012E000F5CF05F00900F5CF06F00800F5CF07F0BF
:1012F000E80E096E030E0A6E0B6A0C6AB7EC28F052
:1013000004C05EF105C05FF101015A6B5B6B010126
:101310005C6B5D6B01016093010160810101986B61
:10132000040E0101985D0BE201019851EA6A660F13
:10133000E96E010EEA22EF6A0101982BF1D7010153
:10134000C46B0101C96B0101986B080E0101985D26
:1013500012E201019851040DF3CFE9FFF4CFEAFF47
:10136000B80EE926000EEA22EE6AEE6AEE6AEE6A2E
:101370000101982BEAD70101586B0101986B010E0E
:101380000101985D13E201019851190DF3CFE9FFB6
:10139000F4CFEAFF6A0EE926010EEA22020EE926E0
:1013A000000EEA22EF6A0101982BE9D70101986B40
:1013B000040E0101985D50E201019851090DF3CF2F
:1013C000F6FFF4CFF7FF840EF626100EF722040E78
:1013D000F626000EF7220800F550E66E010198513E
:1013E000EA6A830FE96E010EEA22E552E750EF6EDA
:1013F00001019851E96EEA6AD890E936EA36870E1B
:10140000E926010EEA22EE6AED6A01019851090D02
:10141000F3CFF6FFF4CFF7FF840EF626100EF72277
:10142000070EF626000EF7220900F5CF10F008008F
:10143000F5CF11F001019851E96EEA6AD890E936CA
:10144000EA368F0EE926010EEA2210C0EEFF11C027
:10145000EDFF0101982BACD704EC06F00101006B05
:10146000016B01010291028302950297040EF66E50
:10147000100EF76E0900F5CF10F00800F5CF11F04F
:10148000050ED89010361136E804FBE1000E01017C
:1014900010100B6F11C00CF101010D910D930D9502
:1014A0000D9701010D8B0101020E986F030E0101D2
:1014B000985D01E335D1070EF36E020EF3CFDBFF2B
:1014C000030EDB6A080EF36E030EDBCFF4FFF3505E
:1014D000F45C21E2020E0101985D200DF3CF10F0C3
:1014E000F4CF11F0630E1026100E1122030EDB5004
:1014F000040D1050F324F66E1150F420F76E020E16
:10150000DBCFE7FF0800F550E726020EE7CFDBFF51
:10151000030EDB2AD7D7020EDB3ADB46DB9EDB9CD1
:10152000DB9A020EDB50080811E2080EF36E020E81
:10153000F3CFDBFF020E0101985DE66EE66A030E53
:10154000E66EF4EC12F0E552E552E552020E0101AE
:10155000985D050DF3CFF6FFF4CFF7FF5D0EF6268D
:10156000100EF7220900000EF514106E0900000E8F
:10157000F514116E0900000EF514126E0800800EAD
:10158000F514136E105011101210131001E0C5D095
:10159000020EDB5001E1C1D0020E0101985D050D84
:1015A000F3CFF6FFF4CFF7FF5D0EF626100EF7220D
:1015B0000900F5CF10F00800F5CF11F0050ED89016
:1015C00010361136E804FBE11050000E1112010133
:1015D00098510B0DF3CFE9FFF4CFEAFF000EE92697
:1015E000010EEA2210C0EEFF11C0EDFF020EDB502B
:1015F000106E010198510B0DF3CFE9FFF4CFEAFF14
:10160000000EE926010EEA22EE52EE5210500F0BA8
:10161000F36EF00EEF14F310EF6E020E0101985D01
:10162000030A5EE0010A3FE0030A20E0010A01E04C
:1016300074D00101D251106E116A050ED890103687
:101640001136E804FBE11050000E1112010198510F
:101650000B0DF3CFE9FFF4CFEAFF000EE926010EF0
:10166000EA221050EE261150ED2257D00101D2513E
:10167000106E116A050ED89010361136E804FBE1A1
:101680001050000E1112010198510B0DF3CFE9FF1C
:10169000F4CFEAFF000EE926010EEA221050EE26F2
:1016A0001150ED223AD00101D251106E116A050E8F
:1016B000D89010361136E804FBE11050000E1112DC
:1016C000010198510B0DF3CFE9FFF4CFEAFF000EB3
:1016D000E926010EEA221050EE261150ED221DD00F
:1016E0000101D251106E116A050ED89010361136D4
:1016F000E804FBE11050000E1112010198510B0D8E
:10170000F3CFE9FFF4CFEAFF000EE926010EEA224B
:101710001050EE261150ED2200D00101982BC6D6B4
:101720000101030E986F040E0101985D01E3B3D02F
:10173000030E0101985D090DF3CFF6FFF4CFF7FF1B
:10174000530EF626100EF7220900000EF514106E47
:101750000900000EF514116E0900000EF514126E4A
:101760000800800EF514136E105011101210131093
:1017700001E08ED0030E0101985D090DF3CFF6FF55
:10178000F4CFF7FF530EF626100EF722040EF626BE
:10179000000EF7220900000EF514146E0900000E69
:1017A000F514156E0900000EF514166E0800800E73
:1017B000F514176E145015101610171069E1030E6A
:1017C0000101985D090DF3CFF6FFF4CFF7FF530E3B
:1017D000F626100EF7220900F5CF10F00800F5CF1D
:1017E00011F0050ED89010361136E804FBE11050C8
:1017F000000E1112010198510B0DF3CFE9FFF4CF48
:10180000EAFF000EE926010EEA2210C0EEFF11C029
:10181000EDFF010198510B0DF3CFE9FFF4CFEAFF83
:10182000000EE926010EEA22EE52EE52F00EEF14FF
:101830000809EF6E010198510B0DF3CFE9FFF4CFCA
:10184000EAFF000EE926010EEA22EE52EE52EF8A7E
:10185000030E0101985D1CE10101D251106E116A65
:10186000050ED89010361136E804FBE11050000E3A
:101870001112010198510B0DF3CFE9FFF4CFEAFFEC
:10188000000EE926010EEA221050EE261150ED223C
:101890000101982B48D70101040E986F080E010131
:1018A000985D01E391D0040E0101985D040DF3CF22
:1018B000F6FFF4CFF7FF2D0EF626100EF7220900E3
:1018C000000EF514106E0900000EF514116E0900DB
:1018D000FF0EF514126E0800000EF514136E105072
:1018E00011101210131041E0040E0101985D040D57
:1018F000F3CFF6FFF4CFF7FF2D0EF626100EF722EA
:101900000900F5CF16F00900F5CF17F00900F5CF63
:1019100018F00800F5CF19F018C012F019C013F034
:101920000001146A156A136A146A156A070E131205
:1019300012C010F013C011F0050ED89010361136F9
:10194000E804FBE11050000E1112010198510B0D3B
:10195000F3CFE9FFF4CFEAFF000EE926010EEA22F9
:1019600010C0EEFF11C0EDFF0DD0010198510B0D1D
:10197000F3CFE9FFF4CFEAFF000EE926010EEA22D9
:10198000EE6AED6A010198510B0DF3CFE9FFF4CF38
:10199000EAFF000EE926010EEA22EE52EE52F00EA8
:1019A000EF140109EF6E010198510B0DF3CFE9FF20
:1019B000F4CFEAFF000EE926010EEA22EE52EE52C3
:1019C000EF8A0101982B6AD7040EF66E100EF76E9F
:1019D0000900F5CF10F00800F5CF11F0050ED890F2
:1019E00010361136E804FBE1000E00011010606FA4
:1019F00011C061F0000162916293629562970101EA
:101A0000D251126E136A260EF66E100EF76E090092
:101A1000F5501224106E0900F5501320116E050EBA
:101A2000D89010361136E804FBE1000E00011010CA
:101A30006B6F11C06CF000016D916D936D956D87AA
:101A40000101020E986F060E0101985D01E35ED15F
:101A5000070EF36E040EF3CFDBFF050EDB6A080EF4
:101A6000F36E050EDBCFF4FFF350F45C21E2020EBF
:101A70000101985D200DF3CF10F0F4CF11F0A90E05
:101A80001026100E1122050EDB50040D1050F32409
:101A9000F66E1150F420F76E040EDBCFE7FF08005E
:101AA000F550E726040EE7CFDBFF050EDB2AD7D77C
:101AB000040EDB3ADB46DB9EDB9CDB9A040EDB503C
:101AC000080811E2080EF36E040EF3CFDBFF020EDE
:101AD0000101985DE66EE66A030EE66EF4EC12F024
:101AE000E552E552E552020E0101985D090DF3CF72
:101AF000F6FFF4CFF7FF840EF626100EF72209004A
:101B0000000EF514106E0900000EF514116E090098
:101B1000000EF514126E0800800EF514136E1050AE
:101B200011101210131001E0EED0040EDB5001E191
:101B3000EAD0020E0101985D090DF3CFF6FFF4CF54
:101B4000F7FF840EF626100EF7220900F5CF10F0ED
:101B50000800F5CF11F0050ED89010361136E804C4
:101B6000FBE11050000E1112010198510B0DF3CF43
:101B7000E9FFF4CFEAFF600EE926000EEA2210C06A
:101B8000EEFF11C0EDFF040EDB50106E0101985105
:101B90000B0DF3CFE9FFF4CFEAFF600EE926000E4C
:101BA000EA22EE52EE5210500F0BF36EF00EEF14CD
:101BB000F310EF6E020E0101985D090DF3CFF6FFF1
:101BC000F4CFF7FF840EF626100EF722040EF62649
:101BD000000EF7220800F504106E116A113404E2B9
:101BE0001050EF08000E11540EE3010198510B0D37
:101BF000F3CFE9FFF4CFEAFF600EE926000EEA22F8
:101C0000EE52EE52EF8A020E0101985D030A5EE089
:101C1000010A3FE0030A20E0010A01E074D001015B
:101C2000D251106E116A050ED89010361136E804A4
:101C3000FBE11050000E1112010198510B0DF3CF72
:101C4000E9FFF4CFEAFF600EE926000EEA22105009
:101C5000EE261150ED2257D00101D251106E116ABB
:101C6000050ED89010361136E804FBE11050000E36
:101C70001112010198510B0DF3CFE9FFF4CFEAFFE8
:101C8000600EE926000EEA221050EE261150ED22D9
:101C90003AD00101D251106E116A050ED89010365B
:101CA0001136E804FBE11050000E111201019851A9
:101CB0000B0DF3CFE9FFF4CFEAFF600EE926000E2B
:101CC000EA221050EE261150ED221DD00101D25112
:101CD000106E116A050ED89010361136E804FBE13B
:101CE0001050000E1112010198510B0DF3CFE9FFB6
:101CF000F4CFEAFF600EE926000EEA221050EE262D
:101D00001150ED2200D00101982B9DD60101060E45
:101D1000986F070E0101985D01E3A9D0060E01013D
:101D2000985D090DF3CFF6FFF4CFF7FF530EF626BB
:101D3000100EF7220900000EF514106E0900000EB7
:101D4000F514116E0900000EF514126E0800800ED5
:101D5000F514136E105011101210131001E084D0FE
:101D6000060E0101985D090DF3CFF6FFF4CFF7FFE2
:101D7000530EF626100EF722040EF626000EF7225A
:101D80000900000EF514146E0900000EF514156E0E
:101D90000900000EF514166E0800800EF514176E7B
:101DA00014501510161017105FE1060E0101985D12
:101DB000090DF3CFF6FFF4CFF7FF530EF626100E02
:101DC000F722040EF626000EF7220900F5CF10F0D8
:101DD0000800F5CF11F0050ED89010361136E80442
:101DE000FBE11050000E1112010198510B0DF3CFC1
:101DF000E9FFF4CFEAFF600EE926000EEA2210C0E8
:101E0000EEFF11C0EDFF010198510B0DF3CFE9FF7B
:101E1000F4CFEAFF600EE926000EEA22EE52EE52FF
:101E2000F00EEF140809EF6E060E0101985D1CE13B
:101E30000101D251106E116A050ED890103611367C
:101E4000E804FBE11050000E1112010198510B0D36
:101E5000F3CFE9FFF4CFEAFF600EE926000EEA2295
:101E60001050EE261150ED220101982B52D701019E
:101E7000D251116A000F106E070E1122050ED89074
:101E800010361136E804FBE1000E00011010AD6FB2
:101E900011C0AEF00001AF81AF93AF95AF977CEC6E
:101EA00001F0060EE15C02E2E16AE552E16EE55204
:101EB000E7CFD9FF1200D9CFE6FFE1CFD9FF01016B
:101EC000AB5101E001D0F29CFD0EDBCFE9FFFE0E2D
:101ED000DBCFEAFF0B0EEA02F3CFEAFF0B0EE902BB
:101EE000F3CFE9FFF450EA26600EE926000EEA225D
:101EF000EE52EE52EF50100B13E0FD0EDBCFE6FF7B
:101F0000FE0EDBCFE6FF0C0EE66E6EDBE552E55211
:101F1000E5520101AB5101E001D0F28C010EFBD082
:101F20000F010F012051080B01E0D5D001015851DC
:101F300001E0D1D0FD0EDBCFE9FFFE0EDBCFEAFFE3
:101F40000B0EEA02F3CFEAFF0B0EE902F3CFE9FF33
:101F5000F450EA26600EE926000EEA22EE52EE5216
:101F6000EF50200B1AE001015E515F1116E00101F4
:101F70005C5101015E5D01015D5101015F590DE29E
:101F8000FD0EDBCFE6FFFE0EDBCFE6FF0D0EE66EAD
:101F90002BDBE552E552E5529DD0FD0EDBCFE9FF8C
:101FA000FE0EDBCFEAFF0B0EEA02F3CFEAFF0B0EC9
:101FB000E902F3CFE9FFF450EA26600EE926000EAD
:101FC000EA22EFCF22FFFD0EDBCFE9FFFE0EDBCFD3
:101FD000EAFF0B0EEA02F3CFEAFF0B0EE902F3CFA2
:101FE000E9FFF450EA26600EE926000EEA22010E0F
:101FF000E926000EEA22EFCF21FFFD0EDBCFE9FF3D
:10200000FE0EDBCFEAFF0B0EEA02F3CFEAFF0B0E68
:10201000E902F3CFE9FFF450EA26600EE926000E4C
:10202000EA22EE52EE52EF500F0B0F01256F0F0117
:102030002551080803E20F01080E256F0F012551F5
:10204000E66EE66AFD0EDBCFE9FFFE0EDBCFEAFFB0
:102050000B0EEA02F3CFEAFF0B0EE902F3CFE9FF22
:10206000F450EA26600EE926000EEA22030EE92665
:10207000000EEA22E9CF10F0EACF11F010C0E6FF1F
:1020800011C0E6FF260EE66E0F0EE66E69EC28F034
:10209000126E060EE15E1250FD0EDBCFE9FFFE0E62
:1020A000DBCFEAFF0B0EEA02F3CFEAFF0B0EE902E9
:1020B000F3CFE9FFF450EA26600EE926000EEA228B
:1020C0000F01EF50080B02E0258D01D0259D0F0177
:1020D000080E206F19D0FD0EDBCFE9FFFE0EDBCF1F
:1020E000EAFF0B0EEA02F3CFEAFF0B0EE902F3CF91
:1020F000E9FFF450EA26600EE926000EEA22EE52CD
:10210000EE52EF880101582B0101AB5101E001D0E3
:10211000F28C000E00D0E552E7CFD9FF1200D9CFE4
:10212000E6FFE1CFD9FFFD0EDBCFE9FFFE0EDBCFEF
:10213000EAFF010ED890E936EA36E806FBE1870EA1
:10214000E926010EEA22EE50ED1002E0020E51D017
:10215000FD0EDBCFF6FFFE0EDBCFF7FF090EF70219
:10216000F3CFF7FF090EF602F3CFF6FFF450F72690
:10217000840EF626100EF722050EF626000EF72224
:102180000900F5CF10F00800F5CF11F00A0E0B6E24
:102190000C6A10C006F011C007F0FBEC28F006C076
:1021A00010F007C011F0FD0EDBCFE9FFFE0EDBCF14
:1021B000EAFF010ED890E936EA36E806FBE1870E21
:1021C000E926010EEA2210C0EEFF11C0EDFFFD0E60
:1021D000DBCF10F0FE0EDBCF11F0020E1026000E4A
:1021E000112210C0E6FF11C0E6FF65DEE552E552A0
:1021F00000D0E552E7CFD9FF12000101010EAB6F0D
:102200000101A82B000EA9230101AE2B640E0101D0
:10221000AE5D04E10101AA2B0101AE6B01010E517B
:102220000F114FE07F0E0101595D04E0050E010121
:10223000595D47E101015C2B000E5D2301010DA9F1
:1022400020D00101125101015C5D01011351010116
:102250005D590EE2050E0101595D0AE15CC1E6FF20
:102260005DC1E6FF1D0EE66EBFD9E552E552E552AF
:1022700001015A2B000E5B2301015C6B5D6B0101B8
:102280000D99010114A11DD00101B42B000EB5233D
:1022900001010E510101B45D01010F510101B55958
:1022A00010E3000EE66EE66A06DEE552E552010135
:1022B0005A2B000E5B2301015C6B5D6B0101B46B5B
:1022C000B56B050E0101595D18E00101996B010E16
:1022D0000101995D12E2020E010199250B0DF3CF68
:1022E000E9FFF4CFEAFF000EE926010EEA22EE52E2
:1022F000EE52EF980101992BEAD72EEC07F001017D
:102300000E510F1166E0050E0101595D62E10101F8
:102310005C515D114BE10101996B040E0101995D66
:1023200045E2020E010199250B0DF3CFE9FFF4CF31
:10233000EAFF600EE926000EEA22EE52EE52EF505E
:10234000200B31E001019951EA6A830FE96E010E19
:10235000EA22EF0628E101019951090DF3CFF6FFBA
:10236000F4CFF7FF840EF626100EF722040EF626A1
:10237000000EF7220800F550E66E01019951EA6A55
:10238000830FE96E010EEA22E552E750EF6E99C124
:10239000E6FF7FEC07F0E55201019951E66EE66A2F
:1023A000BEDEE552E5520101992BB7D701015C5120
:1023B0000101105D01015D51010111590AE25CC189
:1023C000E6FF5DC1E6FF0F0EE66E0ED9E552E5525F
:1023D000E5520101996B040E0101995D01E380D082
:1023E00001019951E96EEA6AD890E936EA36870E1A
:1023F000E926010EEA22EE50ED100EE0010199519E
:10240000E96EEA6AD890E936EA36870EE926010EC7
:10241000EA22EE06000EEF5A01019951090DF3CFA1
:10242000F6FFF4CFF7FF840EF626100EF722070E04
:10243000F626000EF7220900F5CF10F00800F5CFC0
:1024400011F01050111049E001019951E96EEA6A4A
:10245000D890E936EA368F0EE926010EEA22EE061A
:10246000000EED5AEECF12F0EDCF13F01250131014
:1024700034E101019951090DF3CFF6FFF4CFF7FFD5
:10248000840EF626100EF722070EF626000EF7220F
:102490000900F5CF10F00800F5CF11F001019951B6
:1024A000E96EEA6AD890E936EA368F0EE926010E1F
:1024B000EA2210C0EEFF11C0EDFF050E0101595DCB
:1024C0000CE199C1E6FF7FEC07F0E552010199515B
:1024D000E66EE66A24DEE552E5520101992B7BD7D0
:1024E0000101AF2B320E0101AF5D03E10101AC85AB
:1024F00008D0640E0101AF5D04E10101AC9501015A
:10250000AF6B0101B02B000EB1230101C80EB01951
:1025100001E1B15103E10101AC870CD0900E010142
:10252000B01902E1010EB11905E10101AC970101F9
:10253000B06BB16B0101B22B000EB323D00E0101C1
:10254000B21902E1070EB31948E0B00E0101B21949
:1025500002E1040EB3193EE0E80E0101B21902E1F6
:10256000030EB31934E0200E0101B21902E1030E8B
:10257000B31928E0580E0101B21902E1020EB31995
:102580001CE0900E0101B21902E1010EB3190EE038
:10259000C80E0101B21901E1B35101E022D00101DD
:1025A000AC890101AC8B0101AC8D1BD00101AC9950
:1025B0000101AC9B0101AC9D14D00101AC8B010168
:1025C000AC8D0FD00101AC9B0101AC9D0AD0010183
:1025D000AC8D07D00101AC9D04D00101B26BB36B8F
:1025E00000D00101AB6B1200D9CFE6FFE1CFD9FFDC
:1025F000020EE126FE0EDB40E840E8401F0BDF6ED6
:10260000FE0EDB50070B106E010E105204E0E84680
:10261000FE0B1006FCE1E76E010EE7CFDBFFDF509B
:10262000030804E2DF6ADE52020EDD6E010EDBCF2C
:10263000E6FFDF50EA6A660FE96E010EEA22EF500C
:10264000E552E7142CE1FE0EDB5009E0DF50EA6AA8
:10265000660FE96E010EEA22010EDB50EF12010156
:102660006081010160B31BD001016083FE0EF76A37
:10267000DB34FE0BF736F66EB60EF626510EF72259
:102680000900F5CF61F10A00F5CF62F1FE0EDBCF54
:1026900063F1FC0EDBCF64F1FD0EDBCF65F1020EC2
:1026A000E15C02E2E16AE552E16EE552E7CFD9FF73
:1026B0001200D9CFE6FFE1CFD9FF020EE126FE0ED0
:1026C000DB40E840E8401F0BDF6EFE0EDB50070BDF
:1026D000106E010E105204E0E846FE0B1006FCE1FD
:1026E000E76E010EE7CFDBFFDF5003080BE2FE0EC3
:1026F000DBCFE6FFE66A010EE66E76DFE552E552D5
:10270000E5522BD0010EDBCFE6FFDF50EA6A660F01
:10271000E96E010EEA22EF50E552E7141EE0010EC9
:10272000DB1C106EDF50EA6A660FE96E010EEA22CA
:102730001050EF1601016081010160B30ED001015C
:1027400060830101616B626BFE0EDBCF63F1FC0EF7
:10275000DBCF64F1FD0EDBCF65F1020EE15C02E23E
:10276000E16AE552E16EE552E7CFD9FF1200D9CF19
:10277000E6FFE1CFD9FFFD0EDBCF9AF1FE0EDBCFF6
:102780009BF1FC0EDBCF9CF101019F6BA06B9D0EBA
:10279000F66E4B0EF76E0900F5CFA1F10800F5CFEC
:1027A000A2F10101010EA15F000EA25B0101A15186
:1027B00001019F5D0101A2510101A05901E39FD0D8
:1027C000010101019F510101A12501019D6F01013D
:1027D0000101A0510101A22101019E6F010E0F0B09
:1027E000010105E0D8909E339D33E806FBE19DC1D1
:1027F000F6FF9EC1F7FF070EF702F3CFF7FF070EB4
:10280000F602F3CFF6FFF450F7260F0EF626480E29
:10281000F7220900F5CFA3F10A00F5CFA4F19DC17D
:10282000F6FF9EC1F7FF070EF702F3CFF7FF070E83
:10283000F602F3CFF6FFF450F7260F0EF626480EF9
:10284000F722020EF626000EF7220800F5CFA5F1BA
:102850000101A35101019A1904E10101A4510101EF
:102860009B191DE10101A55101019C5D18E19DC16C
:1028700010F09EC111F0070E1102F3CF11F0070EF8
:102880001002F3CF10F0F45011260F0E1026480E50
:10289000112210C0F3FF11C0F4FF99D02FD0010115
:1028A000A35101019A5D0101A45101019B590FE35C
:1028B0000101A35101019A1904E10101A45101018F
:1028C0009B1912E10101A55101019C5D0DE29DC121
:1028D000A1F19EC1A2F10101A151A21104E00101E7
:1028E000A107000EA25B0AD0010E01019D25010186
:1028F0009F6F000E01019E210101A06F57D70101BA
:10290000A15101019F1904E10101A2510101A01986
:102910005BE19FC19DF1A0C19EF19DC1F6FF9EC1EB
:10292000F7FF070EF702F3CFF7FF070EF602F3CF1C
:10293000F6FFF450F7260F0EF626480EF722090090
:10294000F5CFA3F10A00F5CFA4F19DC1F6FF9EC11A
:10295000F7FF070EF702F3CFF7FF070EF602F3CFEC
:10296000F6FFF450F7260F0EF626480EF722020E59
:10297000F626000EF7220800F5CFA5F10101A351BC
:1029800001019A1904E10101A45101019B191CE103
:102990000101A55101019C5D17E19DC110F09EC18F
:1029A00011F0070E1102F3CF11F0070E1002F3CF52
:1029B00010F0F45011260F0E1026480E112210C0F0
:1029C000F3FF11C0F4FF03D0F36AF46A00D0E552BC
:1029D000E7CFD9FF1200D9CFE6FFE1CFD9FF0A0E2A
:1029E000E126F29CA8C1DEFFA9C1DDFFF28C52EC0A
:1029F00000F0010102A933D00101045105E00101F9
:102A0000D2510101045D29E101010351820A17E05D
:102A1000030A13E0010A0DE0820A07E0030A01E05D
:102A200013D00101050E596F18D00101040E596F22
:102A300014D001017F0E596F10D0FF000ED0F29E0E
:102A400098EC08F0F28E09D0000EE66EE66A1A0ED7
:102A5000E66ECADDE552E552E55201010299010137
:102A600060A1EED001016091FE0E0101661503E048
:102A70000101C48102D00101C491000E010166155B
:102A800003E00101C48302D00101C493000E0101DF
:102A9000661503E00101C48502D00101C495000E52
:102AA0000101661503E00101C48702D00101C4974A
:102AB0000101675103E00101C48902D00101C499F9
:102AC000000E0101661503E00101C48B02D0010173
:102AD000C49B0F0E0101681503E00101C48F02D0F1
:102AE0000101C49F7F0E0101595D05E0050E010142
:102AF000595D01E0A5D0010160A3A2D00001000151
:102B00006D51100B3AE10101B851DE5C106EB95104
:102B1000DD58116E2A0EF66E100EF76E0900F5CF15
:102B200012F00800F5CF13F00A0E0B6E0C6A12C0FB
:102B300006F013C007F0FBEC28F006C012F007C047
:102B400013F01050125C1150135817E261C16EF06F
:102B500062C16FF0C4C170F063C171F064C172F002
:102B600065C173F066C174F067C175F0010EE66E61
:102B7000E66A5BEC0FF0E552E552DECFB8F1DDCF4F
:102B8000B9F101016093080E0101C95D02E2010182
:102B9000C92B0101C9050101A66F0101A651000859
:102BA00029E20101A605040DF3CFE9FFF4CFEAFF06
:102BB000B80EE926000EEA22EECF10F0EECF11F0AB
:102BC000EECF12F0EFCF13F00101A651040DF3CFB9
:102BD000E9FFF4CFEAFFB80EE926000EEA2210C0A2
:102BE000EEFF11C0EEFF12C0EEFF13C0EEFF0101B9
:102BF000A607D3D761C110F062C111F0126A136A3F
:102C000064C114F065C115F0166A176A100E1F0B27
:102C100007E0D8901436153616361736E806F9E16F
:102C2000105014100001B86F115015100001B96F49
:102C3000125016100001BA6F135017100001BB6F2D
:102C40000101C45121E0050E0101595D1DE1EF0EA6
:102C50000101C41503E001017F0E596F0101C4A9F0
:102C600013D0510EF66E100EF76E0800F550020AE2
:102C700004E0030A01E005D007D00101040E596FFA
:102C800003D001017F0E596F7F0E0101595D06E0EF
:102C9000050E0101595D02E088EF1AF00101010102
:102CA0002351100B02E169EF1AF000010001A45159
:102CB000100B02E069EF1AF025C1A6F026C1A7F0BB
:102CC00027C1A8F00001A96BAA6BAB6BAC6B01012B
:102CD0002451E00BE838E840040A01E1E1D3070A97
:102CE00001E131D3010A01E1DAD1020A01E106D1A1
:102CF000010A01E0D8D327C1E6FF25C1E6FF26C1BE
:102D0000E6FF35DDE552E552E552F3CF6AF1F4CF47
:102D10006BF101016A516B1114E10001800EA56F86
:102D20000001A96BAA6B020EAB6F060EAC6F01011E
:102D30006C6B060EE66EE66A5BEC0FF0E552E55250
:102D4000C6D36AC1F6FF6BC1F7FF040EF626000E6C
:102D5000F7220800F550140815E20001800EA56F57
:102D60000001470EA96FAA6B040EAB6F060EAC6F85
:102D700001016C6B060EE66EE66A5BEC0FF0E55245
:102D8000E552A5D36AC1F6FF6BC1F7FF030EF62625
:102D9000000EF7220800F550070B02080DE06AC18B
:102DA000F6FF6BC1F7FF030EF626000EF7220800B0
:102DB000F550070B030815E10001800EA56F000117
:102DC000020EA96FAA6B010EAB6F060EAC6F01016C
:102DD0006C6B060EE66EE66A5BEC0FF0E552E552B0
:102DE00076D3010124A341D0010124A10CD0040E0B
:102DF000106E01012451E840E8403F0B030B105CCA
:102E00000101A66F03D00101040EA66FA6C1E6FF63
:102E1000280EE66E010EE66E6AC1E6FF6BC1E6FFA4
:102E2000A7EC04F0106E050EE15E105004C0A9F08E
:102E300005C0AAF006C0ABF007C0ACF00001A95174
:102E4000AA11AB11AC1104E00001800EA56F03D0F4
:102E50000001600EA56F01016C6B060EE66EE66A5E
:102E60005BEC0FF0E552E55248D0010124A145D0BA
:102E70006AC1F6FF6BC1F7FF040EF626000EF722BB
:102E80000800F5CF10F0116A126A136A0101285187
:102E900010180CE101012951111808E101012A5112
:102EA000121804E101012B51131800E115E0000193
:102EB000800EA56F0001100EA96FAA6B070EAB6FF5
:102EC000060EAC6F01016C6B060EE66EE66A5BECFB
:102ED0000FF0E552E552FBD20101816BAAC182F1EC
:102EE0000101020E6C6F0001600EA56F060EE66E0A
:102EF000E66A5BEC0FF0E552E552E9D201016CB3F2
:102F000015D00001800EA56F0001010EA96FAA6BFC
:102F1000040EAB6F050EAC6F01016C6B060EE66E16
:102F2000E66A5BEC0FF0E552E552D1D2100E0101DA
:102F30002415106E100E01016C15105C14E00001D8
:102F4000800EA56F0001A96BAA6B030EAB6F050E77
:102F5000AC6F01016C6B060EE66EE66A5BEC0FF07F
:102F6000E552E552B4D2070E106E010124417F0BE9
:102F7000070B105C0101A66F010181510101A6251B
:102F8000106E6AC1F6FF6BC1F7FF040EF626000E45
:102F9000F7220800F550D880105415E20001800E89
:102FA000A56F0001120EA96FAA6B070EAB6F060E7C
:102FB000AC6F01016C6B060EE66EE66A5BEC0FF01F
:102FC000E552E55284D20101A651E66EE66A250E6D
:102FD000E66E010EE66E01018151116A6D0F106EF1
:102FE000010E112210C0E6FF11C0E6FF69EC28F0C7
:102FF000126E060EE15E12500101A65101018127F9
:10300000100E01016C1520090001A56F010124A11A
:103010002ED081C1E6FF6D0EE66E010EE66E6AC12E
:10302000E6FF6BC1E6FFA7EC04F0106E050EE15E53
:10303000105004C0A9F005C0AAF006C0ABF007C04C
:10304000ACF00001A951AA11AB11AC110DE00001C7
:10305000800EA56F01016C6B060EE66EE66A5BECF6
:103060000FF0E552E55233D201016C6B0AD0AAC1D0
:1030700082F101016CA903D001016C9902D0010118
:103080006C890001A66B0001A76B0001A86B060EFE
:10309000E66EE66A5BEC0FF0E552E55218D227C106
:1030A000E6FF25C1E6FF26C1E6FFB7EC13F0E552C7
:1030B000E552E552F3CF6AF1F4CF6BF101016A51A9
:1030C0006B1115E10001800EA56F0001A96BAA6BC1
:1030D000020EAB6F060EAC6F01016C6B060EE66E56
:1030E000E66A5BEC0FF0E552E552F1D121D06AC1FE
:1030F000F6FF6BC1F7FF040EF626000EF72208005C
:10310000F550140815E20001800EA56F0001470E6E
:10311000A96FAA6B040EAB6F060EAC6F01016C6B4E
:10312000060EE66EE66A5BEC0FF0E552E552CFD193
:103130006AC1F6FF6BC1F7FF030EF626000EF722F9
:103140000800F550070B010815E10001800EA56F7E
:103150000001010EA96FAA6B010EAB6F060EAC6FDA
:1031600001016C6B060EE66EE66A5BEC0FF0E55251
:10317000E552ADD16AC1F6FF6BC1F7FF040EF6262A
:10318000000EF7220800F550040876E3040EE66E00
:10319000A90EE66E000EE66E6AC1E6FF6BC1E6FFA1
:1031A000BAEC03F0106E050EE15E1050020E04C082
:1031B000DBFF030E05C0DBFF040E06C0DBFF050EC0
:1031C00007C0DBFF020EDBCF10F0030EDBCF11F0E8
:1031D000040EDBCF12F0050EDBCF13F010501110F0
:1031E0001210131019E00001800EA56F020EDBCF44
:1031F000A9F0030EDBCFAAF0040EDBCFABF0050E77
:10320000DBCFACF001016C6B060EE66EE66A5BECA0
:103210000FF0E552E5522FD06AC1F6FF6BC1F7FF00
:10322000030EF626000EF7220800F550200B08E0EA
:103230000101D2510001A927000EAA23AB23AC2320
:10324000040E106E6AC1F6FF6BC1F7FF040EF6267E
:10325000000EF7220800F550105C040DF3504309EE
:103260000001A56F01016C6B060EE66EE66A5BEC71
:103270000FF0E552E55266D0140EE66E6D0EE66E66
:10328000010EE66E6AC1E6FF6BC1E6FFBAEC03F021
:10329000106E050EE15E1050060E04C0DBFF070E37
:1032A00005C0DBFF080E06C0DBFF090E07C0DBFF11
:1032B000060EDBCF10F0070EDBCF11F0080EDBCFD0
:1032C00012F0090EDBCF13F0105011101210131072
:1032D00019E00001800EA56F060EDBCFA9F0070EE6
:1032E000DBCFAAF0080EDBCFABF0090EDBCFACF0E2
:1032F00001016C6B060EE66EE66A5BEC0FF0E552C0
:10330000E55220D00101816BAAC182F10101040EB6
:103310006C6F0001410EA56F6AC1F6FF6BC1F7FF2C
:10332000040EF626000EF7220800F5CFA9F00001E2
:10333000AA6BAB6BAC6B060EE66EE66A5BEC0FF04D
:10334000E552E552C4D001016CB515D00001800EE4
:10335000A56F0001010EA96FAA6B040EAB6F050EDD
:10336000AC6F01016C6B060EE66EE66A5BEC0FF06B
:10337000E552E552ACD0100E01012415106E100E6E
:1033800001016C15105C14E00001800EA56F0001B6
:10339000A96BAA6B030EAB6F050EAC6F01016C6BD2
:1033A000060EE66EE66A5BEC0FF0E552E5528FD052
:1033B0006AC1F6FF6BC1F7FF040EF626000EF72276
:1033C0000800F5500101D88081550101A76F010166
:1033D000A751070803E20101070EA76F0101A66BC1
:1033E0000101A7510101A65D18E20101815101010E
:1033F000A625EA6A6D0FE96E010EEA22EF50E66E2D
:103400000101A629EA6AA50FE96E000EEA22E5523B
:10341000E750EF6E0101A62BE3D7070E0101A65D71
:103420000BE20101A629EA6AA50FE96E000EEA2265
:10343000EF6A0101A62BF1D70101A75101018127F4
:10344000070E0101D880A755E824106E100E010167
:103450006C1510100001A56F6AC1F6FF6BC1F7FF74
:10346000040EF626000EF7220800F5500101815DDA
:1034700005E10001A58101016C6B0AD0AAC182F1AE
:1034800001016CA903D001016C9902D001016C8982
:10349000060EE66EE66A5BEC0FF0E552E55217D0D9
:1034A00001016C6B14D00001800EA56F0001010EAC
:1034B000A96FAA6B040EAB6F050EAC6F01016C6BAC
:1034C000060EE66EE66A5BEC0FF0E552E55201018E
:1034D000239901016C511BE0010182510101AA5D98
:1034E000106E0A0E105C13E30001800EA56F000140
:1034F000A96BAA6B040EAB6F050EAC6F01016C6B70
:10350000060EE66EE66A5BEC0FF0E552E55204D07B
:1035100001016C6B010123990101050E976F7F0E6C
:103520000101595D05E0050E0101595D01E047D13A
:103530000101A66B040E0101A65D01E33FD101016B
:10354000A651040DF3CFF6FFF4CFF7FF2D0EF626AC
:10355000100EF7220900F5CF10F00800F5CF11F09A
:103560001050111001E127D1040E0101A6250B0D09
:10357000F3CFE9FFF4CFEAFF000EE926010EEA22BD
:10358000EE52EE52EF50100B67E0040E0101A6253B
:103590000B0DF3CFE9FFF4CFEAFF000EE926010E91
:1035A000EA22030EE926000EEA22EF50E66E040E30
:1035B0000101A6250B0DF3CFE9FFF4CFEAFF000EC2
:1035C000E926010EEA22030EE926000EEA22010E88
:1035D000E926000EEA22E552E750EF6E040E0101E3
:1035E000A6250B0DF3CFE9FFF4CFEAFF000EE92685
:1035F000010EEA22030EE926000EEA22010EE92658
:10360000000EEA22EF5018E0040E0101A6250B0D72
:10361000F3CFE9FFF4CFEAFF000EE926010EEA221C
:10362000030EE926000EEA22020EE926000EEA2227
:10363000DECFEEFFDDCFEDFF040E0101A6250B0D61
:10364000F3CFE9FFF4CFEAFF000EE926010EEA22EC
:10365000EE52EE52EF9896D0040E0101A6250B0D06
:10366000F3CFE9FFF4CFEAFF000EE926010EEA22CC
:10367000030EE926000EEA22040EE926000EEA22D5
:10368000EF5054E0DECF12F0DDCF13F0040E010155
:10369000A6250B0DF3CFE9FFF4CFEAFF000EE926D4
:1036A000010EEA22030EE926000EEA22020EE926A6
:1036B000000EEA22EE50125C106EEE501358116E9E
:1036C0000101A651040DF3CFF6FFF4CFF7FF2D0E45
:1036D000F626100EF7220900F5CF14F00800F5CFFA
:1036E00015F01050145C115015581FE2000EE66ED4
:1036F000E66A0E0EE66EF4EC12F0E552E552E55283
:10370000040E0101A6250B0DF3CFE9FFF4CFEAFF6C
:10371000000EE926010EEA22030EE926000EEA2237
:10372000010EE926000EEA22EF6A2CD0040E0101F8
:10373000A6250B0DF3CFE9FFF4CFEAFF000EE92633
:10374000010EEA22030EE926000EEA22010EE92606
:10375000000EEA22EF5016E0040E0101A6250B0D23
:10376000F3CFE9FFF4CFEAFF000EE926010EEA22CB
:10377000030EE926000EEA22040EE926000EEA22D4
:10378000010EEF6E040E0101A6250B0DF3CFE9FF2C
:10379000F4CFEAFF000EE926010EEA22030EE92625
:1037A000000EEA22010EE926000EEA22EF5005087B
:1037B00002E00101976B0101A62BBCD644D00101A8
:1037C000A66B040E0101A65D3CE2040E0101A625D4
:1037D0000B0DF3CFE9FFF4CFEAFF000EE926010E4F
:1037E000EA22030EE926000EEA22010EE926000E67
:1037F000EA22EF6A040E0101A6250B0DF3CFE9FFC3
:10380000F4CFEAFF000EE926010EEA22EE52EE5254
:10381000EF98040E0101A6250B0DF3CFE9FFF4CFBD
:10382000EAFF000EE926010EEA22030EE926000E49
:10383000EA22040EE926000EEA22EF6A0101A62B15
:10384000C0D70101976B97C1ADF13D0EF66E100E1A
:10385000F76E0900F5CF10F00800F5CF11F0105009
:10386000111016E00101B651DE5C126EB751DD5841
:10387000136E3D0EF66E100EF76E0900F5CF14F0C4
:103880000800F5CF15F01450125C1550135803E2E0
:103890000101595130E1DECFB6F1DDCFB7F159C1A9
:1038A000B0F0070EE66EE66A5BEC0FF0E552E5520B
:1038B0000101595120E1290EF66E110EF76E090033
:1038C000040EF514106E0900000EF514116E0900B7
:1038D000000EF514126E0800000EF514136E105051
:1038E00011101210131004E10101050E596F03D0DD
:1038F00001017F0E596F01015951050A17E07A0A3B
:103900000CE07B0A01E01BD001010101AC51100B5E
:1039100002E08A8801D08A9812D001010101AC51DD
:10392000080B02E08A8801D08A9809D001010101C0
:10393000AC51010B02E08A8801D08A9800D00101C5
:1039400067A309D001010101AC51010B02E08A8A91
:1039500001D08A9A41D0010167AF09D0010101016C
:10396000AC51400B02E08A8A01D08A9A35D001011D
:1039700067AD09D001010101AC51200B02E08A8A38
:1039800001D08A9A29D0040E0101671508E1080EBA
:103990000101671504E1100E0101691509E001013B
:1039A0000101AC51100B02E08A8A01D08A9A14D02E
:1039B0000101C45109E001010101AC51080B02E011
:1039C0008A8A01D08A9A08D001010101AC51020B08
:1039D00002E08A8A01D08A9A0A0EE15C02E2E16A78
:0C39E000E552E16EE552E7CFD9FF12007E
:0439EC000001DE6B8D
:1039F0000001ED6B8A808A821200D9CFE6FFE1CF09
:103A0000D9FFE652DF6A010EE66ED9CFE6FFDACFC4
:103A1000E6FF750EE66EFE0EDBCFE6FF48EC27F004
:103A2000106E050EE15E1050FE0EDB507E0BDF5C6B
:103A300002E1010E02D0000E00D0E552E552E7CFC0
:103A4000D9FF1200D9CFE6FFE1CFD9FF4C0EE12616
:103A50001D0EF36E030EF3CFDBFF1E0EF36E040E8E
:103A6000F3CFDBFF1F0EF36E050EF3CFDBFF200E4F
:103A7000F36E060EF3CFDBFF210EF36E070EF3CFCE
:103A8000DBFF220EF36E080EF3CFDBFF230EF36E87
:103A9000090EF3CFDBFF240EF36E0A0EF3CFDBFF2C
:103AA000250EF36E0B0EF3CFDBFF260EF36E0C0E1E
:103AB000F3CFDBFF270EF36E0D0EF3CFDBFF280EE7
:103AC000F36E0E0EF3CFDBFF290EF36E0F0EF3CF66
:103AD000DBFF2A0EF36E100EF3CFDBFF2B0EF36E1F
:103AE000110EF3CFDBFF2C0EF36E120EF3CFDBFFC4
:103AF0002D0EF36E130EF3CFDBFF2E0EF36E140EAE
:103B0000F3CFDBFF2F0EF36E150EF3CFDBFF300E7E
:103B1000F36E160EF3CFDBFF310EF36E170EF3CFFD
:103B2000DBFF320EF36E180EF3CFDBFF330EF36EB6
:103B3000190EF3CFDBFF340EF36E1A0EF3CFDBFF5B
:103B4000350EF36E1B0EF3CFDBFF370EF36E1C0E3C
:103B5000F3CFDBFF380EF36E1D0EF3CFDBFF630EEA
:103B6000F36E1E0EF3CFDBFF640EF36E1F0EF3CF6A
:103B7000DBFF650EF36E200EF3CFDBFF660EF36EF8
:103B8000210EF3CFDBFF670EF36E220EF3CFDBFFC8
:103B9000680EF36E230EF3CFDBFF690EF36E240E77
:103BA000F3CFDBFF6A0EF36E250EF3CFDBFF1A0EA9
:103BB000F36E260EF3CFDBFF1D0EF36E270EF3CF51
:103BC000DBFF1E0EF36E280EF3CFDBFF1F0EF36E2E
:103BD000290EF3CFDBFF200EF36E2A0EF3CFDBFFAF
:103BE000210EF36E2B0EF3CFDBFF220EF36E2C0EA5
:103BF000F3CFDBFF230EF36E2D0EF3CFDBFF240E8E
:103C0000F36E2E0EF3CFDBFF250EF36E2F0EF3CFE8
:103C1000DBFF260EF36E300EF3CFDBFF270EF36EC5
:103C2000310EF3CFDBFF280EF36E320EF3CFDBFF46
:103C3000290EF36E330EF3CFDBFF2A0EF36E340E34
:103C4000F3CFDBFF2B0EF36E350EF3CFDBFF2C0E25
:103C5000F36E360EF3CFDBFF2D0EF36E370EF3CF80
:103C6000DBFF2E0EF36E380EF3CFDBFF2F0EF36E5D
:103C7000390EF3CFDBFF300EF36E3A0EF3CFDBFFDE
:103C8000310EF36E3B0EF3CFDBFF320EF36E3C0EC4
:103C9000F3CFDBFF330EF36E3D0EF3CFDBFF340EBD
:103CA000F36E3E0EF3CFDBFF350EF36E3F0EF3CF18
:103CB000DBFF630EF36E400EF3CFDBFF640EF36E9B
:103CC000410EF3CFDBFF650EF36E420EF3CFDBFF49
:103CD000660EF36E430EF3CFDBFF670EF36E440EFA
:103CE000F3CFDBFF680EF36E450EF3CFDBFF690EFB
:103CF000F36E460EF3CFDBFF6A0EF36E470EF3CF83
:103D0000DBFF370EF36E480EF3CFDBFF380EF36E9A
:103D1000490EF3CFDBFF740EF36E4A0EF3CFDBFFD9
:103D20004B0EDB68080EE66E1B0EE66EFE0EDBCF5A
:103D3000E6FF23EC27F0E552E552E552DE6ADD6A44
:103D4000D950030F106EDACF11F0DFCF12F0DF2A57
:103D5000010EDBCF13F001E3DB2A10501224E96ED1
:103D600011501320EA6E020EEFCFDBFF020EDB5084
:103D7000FF0801E10DD0E66A020EDBCFE6FFFE0E82
:103D8000DBCFE6FF23EC27F0E552E552E552D8D72A
:103D9000020EE66E6B0EE66EFE0EDBCFE6FF23EC48
:103DA00027F0E552E552E552E66A6C0EE66EFE0E2D
:103DB000DBCFE6FF23EC27F0E552E552E552010E9A
:103DC000E66E380EE66EFE0EDBCFE6FF23EC27F044
:103DD000E552E552E552D950FD0FE96EFF0EDA20AB
:103DE000EA6EEF50030BE66EFE0EDBCFE6FF1DD84A
:103DF000E552E552D950FD0FE96EFF0EDA20EA6E6A
:103E0000EF500C0BE842E842E66EFE0EDBCFE6FF19
:103E100053D8E552E5524C0EE15C02E2E16AE5520C
:103E2000E16EE552E7CFD9FF1200D9CFE6FFE1CF2F
:103E3000D9FFFD0EDB50030A2EE0010A1FE0030A42
:103E400010E0010A01E034D09F0EE66E190EE66E16
:103E5000FE0EDBCFE6FF23EC27F0E552E552E552FC
:103E600027D04F0EE66E190EE66EFE0EDBCFE6FF94
:103E700023EC27F0E552E552E5521AD0270EE66E04
:103E8000190EE66EFE0EDBCFE6FF23EC27F0E552BF
:103E9000E552E5520DD00F0EE66E190EE66EFE0EDF
:103EA000DBCFE6FF23EC27F0E552E552E55200D0E8
:103EB000E552E7CFD9FF1200D9CFE6FFE1CFD9FF16
:103EC000FD0EDB50030A2DE0010A1EE0030A0FE09D
:103ED000010A01E033D0E66A1C0EE66EFE0EDBCF6F
:103EE000E6FF23EC27F0E552E552E55227D0080E15
:103EF000E66E1C0EE66EFE0EDBCFE6FF23EC27F02F
:103F0000E552E552E5521AD0100EE66E1C0EE66E32
:103F1000FE0EDBCFE6FF23EC27F0E552E552E5523B
:103F20000DD0180EE66E1C0EE66EFE0EDBCFE6FF21
:103F300023EC27F0E552E552E55200D0E552E7CFF9
:103F4000D9FF1200D9CFE6FFE1CFD9FF0E0EE1264F
:103F5000FC0EDBCFE9FFFD0EDBCFEAFFEF5001E106
:103F6000CBD00E0EE66ED9CFE6FFDACFE6FF3B0EE2
:103F7000E66EFE0EDBCFE6FF48EC27F0106E050E76
:103F8000E15E1050DFCF12F012C013F0126A010E82
:103F9000DB5000011210106E13C011F0FC0EDBCFCD
:103FA000E9FFFD0EDBCFEAFFEE5210C0EEFF11C0BD
:103FB000EDFF020EDBCF12F012C013F0126A030EF7
:103FC000DB5000011210106E13C011F0FC0EDBCF9D
:103FD000E9FFFD0EDBCFEAFF030EE926000EEA2221
:103FE00010C0EEFF11C0EDFF040EDBCF12F012C0C7
:103FF00013F0126A050EDB5000011210106E13C090
:1040000011F0FC0EDBCFE9FFFD0EDBCFEAFF050E62
:10401000E926000EEA2210C0EEFF11C0EDFF060EE9
:10402000DBCF12F012C013F0126A070EDB50000152
:104030001210106E13C011F0FC0EDBCFE9FFFD0E65
:10404000DBCFEAFF070EE926000EEA2210C0EEFFE2
:1040500011C0EDFF080EDBCF12F012C013F0126A90
:10406000090EDB5000011210106E13C011F0FC0E8F
:10407000DBCFE9FFFD0EDBCFEAFF090EE926000EDC
:10408000EA2210C0EEFF11C0EDFF0A0EDBCF12F0E6
:1040900012C013F0126A0B0EDB5000011210106EEA
:1040A00013C011F0FC0EDBCFE9FFFD0EDBCFEAFF02
:1040B0000B0EE926000EEA2210C0EEFF11C0EDFF44
:1040C0000C0EDBCF12F012C013F0126A0D0EDB5093
:1040D00000011210106E13C011F0FC0EDBCFE9FFCF
:1040E000FD0EDBCFEAFF0D0EE926000EEA2210C01E
:1040F000EEFF11C0EDFF46D0FC0EDBCFE9FFFD0E59
:10410000DBCFEAFF010EEB6A020EEB6AFC0EDBCF9F
:10411000E9FFFD0EDBCFEAFF030EEB6A040EEB6A4C
:10412000FC0EDBCFE9FFFD0EDBCFEAFF050EEB6AED
:10413000060EEB6AFC0EDBCFE9FFFD0EDBCFEAFFDC
:10414000070EEB6A080EEB6AFC0EDBCFE9FFFD0EF3
:10415000DBCFEAFF090EEB6A0A0EEB6AFC0EDBCF3F
:10416000E9FFFD0EDBCFEAFF0B0EEB6A0C0EEB6AEC
:10417000FC0EDBCFE9FFFD0EDBCFEAFF0D0EEB6A95
:104180000E0EEB6A0E0EE15C02E2E16AE552E16EB0
:10419000E552E7CFD9FF1200D9CFE6FFE1CFD9FF33
:1041A000E652010EE66ED9CFE6FFDACFE6FF3A0E11
:1041B000E66EFE0EDBCFE6FF48EC27F0106E050E34
:1041C000E15E1050010EDF14010802E1010E01D082
:0E41D000000E00D0E552E552E7CFD9FF1200F5
:0241DE00D9CF37
:1041E000E6FFE1CFD9FF030EE126FD0EDBCFF6FFA0
:1041F000FE0EDBCFF7FF0900F5CFDEFF0A00F5CF9B
:10420000DDFFD9CFE9FFDACFEAFF000ED880EE5408
:10421000120EED5411E2D9CFE9FFDACFEAFFFF0E1B
:10422000D880EE54120EED5407E3D9CFE9FFDACF70
:10423000EAFF800EEE16ED52D9CFE9FFDACFEAFFA2
:10424000000ED880EE54140EED5410E2D9CFE9FFE1
:10425000DACFEAFFFF0ED880EE541B0EED5406E3D2
:10426000D9CFE9FFDACFEAFFEE6AED90000EDBCF9F
:1042700006F0010EDBCF07F0020E061802E1210E58
:10428000071801E1A0D2010E061802E1210E07185D
:1042900001E173D2800E061802E11F0E071801E13A
:1042A0004CD2065002E1180E071801E1FFD106506A
:1042B00002E1140E071801E1B2D1065002E1120E1C
:1042C000071801E16FD1160E061802E1100E07184B
:1042D00001E1B7D0060E061802E1100E071801E141
:1042E00091D0050E061802E1100E07181DE0030E0E
:1042F000061802E1100E071801E077D2FB0EDBCFA3
:10430000E9FFFC0EDBCFEAFFEFCF10F00101C9514E
:10431000D880105408E2310E046E056A090E066E4C
:10432000060E076E67D261D2106AF80E116E12681F
:10433000BF0E136EFB0EDBCFE9FFFC0EDBCFEAFFF7
:10434000EE501016EE501116EE501216EE501316D7
:10435000105011101210131007E0200E046E056AA1
:10436000066A080E076E46D2040EF66E100EF76E41
:104370000900000EF514106E0900000EF514116E00
:104380000900000EF514126E0800400EF514136EAD
:10439000105011101210131034E0FB0EDBCFE9FFA8
:1043A000FC0EDBCFEAFFEECF14F0EFCF15F0166A6C
:1043B000176A040EF66E100EF76E0900FF0EF51464
:1043C000186E0900070EF514196E0900000EF51499
:1043D0001A6E0800000EF5141B6E1450181809E12F
:1043E0001550191806E116501A1803E117501B183A
:1043F00000E107E0220E046E056A066A080E076EE9
:10440000F9D1F3D1FB0EDBCFE9FFFC0EDBCFEAFFE6
:10441000EE50ED1016E0FB0EDBCFE9FFFC0EDBCF1C
:10442000EAFFEECF10F0EFCF11F0B80E105C0B0EDC
:10443000115807E2220E046E056A066A080E076E1E
:10444000D9D1106A116A800E126E1368FB0EDBCF91
:10445000E9FFFC0EDBCFEAFFEE501016EE5011160E
:10446000EE501216EE5013161050111012101310B9
:1044700007E0200E046E056A066A080E076EBAD1C0
:10448000020EDB6A040EF36E020EDBCFF4FFF35074
:10449000F45C01E386D0FB0EDBCFE9FFFC0EDBCF43
:1044A000EAFFEECF10F0EECF11F0EECF12F0EFCF2B
:1044B00013F0100ED8901332123211321032E80677
:1044C000F9E1020EDB50040DF3CFF6FFF4CFF7FF56
:1044D0002D0EF626100EF7220900F5CF14F0090074
:1044E000F5CF15F00900F5CF16F00800F5CF17F05D
:1044F000100ED8901732163215321432E806F9E150
:104500001050141809E11150151806E11250161830
:1045100003E11350171800E141E1FD0EDBCFF6FF78
:10452000FE0EDBCFF7FF020EF626000EF722080084
:10453000F504186E020EDB50185C30E0FB0EDBCF8A
:10454000E9FFFC0EDBCFEAFFEE50ED1027E0020E94
:10455000DB50040DF3CFF6FFF4CFF7FF2D0EF62658
:10456000100EF7220900FF0EF514196E0900FF0E58
:10457000F5141A6E0900000EF5141B6E0800000EEB
:10458000F5141C6E19501A101B101C1007E0220E97
:10459000046E056A066A080E076E2CD1020EDB2A2D
:1045A00071D723D1FD0EDBCFF6FFFE0EDBCFF7FF79
:1045B000020EF626000EF7220800F55001080EE064
:1045C000FD0EDBCFF6FFFE0EDBCFF7FF020EF62669
:1045D000000EF7220800F550020820E1106AF80EDC
:1045E000116E12687F0E136EFB0EDBCFE9FFFC0E1F
:1045F000DBCFEAFFEE501016EE501116EE501216F9
:10460000EE501316105011101210131007E0200E68
:10461000046E056A066A080E076EECD0E6D0FD0E41
:10462000DBCFF6FFFE0EDBCFF7FF020EF626000E05
:10463000F7220800F550010838E1106AF80E116EF3
:1046400012683F0E136EFB0EDBCFE9FFFC0EDBCFD3
:10465000EAFFEE501016EE501116EE501216EE5004
:104660001316105011101210131018E1146A156A65
:10467000166A400E176EFB0EDBCFE9FFFC0EDBCF98
:10468000EAFFEE501416EE501516EE501616EE50C8
:104690001716145015101610171007E1200E046E8F
:1046A000056A066A080E076EA5D09FD0FD0EDBCF07
:1046B000F6FFFE0EDBCFF7FF020EF626000EF72206
:1046C0000800F550010838E1106AF80E116E126802
:1046D0003F0E136EFB0EDBCFE9FFFC0EDBCFEAFFD4
:1046E000EE501016EE501116EE501216EE50131634
:1046F000105011101210131018E1146A156A166A7E
:10470000400E176EFB0EDBCFE9FFFC0EDBCFEAFF9E
:10471000EE501416EE501516EE501616EE501716F3
:10472000145015101610171007E1200E046E056ABC
:10473000066A080E076E5ED058D0FB0E106E116828
:1047400012681368FB0EDBCFE9FFFC0EDBCFEAFF3C
:10475000EE501016EE501116EE501216EE501316C3
:10476000105011101210131007E0200E046E056A8D
:10477000066A080E076E3ED038D0FB0EDBCFE9FF8D
:10478000FC0EDBCFEAFFEFCF10F0010E105C09E268
:10479000320E046E056A090E066E060E076E2AD0EA
:1047A00011D0FB0EDBCFE9FFFC0EDBCFEAFFEF50B1
:1047B0007F0808E2310E046E056A090E066E060EC9
:1047C000076E18D012D0FB0EDBCFE9FFFC0EDBCF5B
:1047D000EAFFEF50070808E2310E046E056A090E81
:1047E000066E060E076E06D000D0046A056A066AD9
:1047F000076A00D0030EE15C02E2E16AE552E16E75
:08480000E552E7CFD9FF1200D9
:08480800020304050607080085
:104810001000120400100110000201C40102100077
:104820000204C5010310000001C9010310010204C4
:10483000B8000310020204BC000310030204C0000D
:104840000310040204C4000310050204C80003108E
:10485000060204CC000310070204D0000310080273
:1048600004D4000510001004041006100010040801
:104870001007100010040C10081000120C10100982
:10488000100012051C100A1000120521101410004F
:104890003204261015100010022A10161000120102
:1048A0002C1016100110042D1016100210043110D7
:1048B00016100310043510161004100439101710C8
:1048C0000010023D1018100012013F1018100112C4
:1048D0000440101810021204441018100312044867
:1048E0001018100412044C10291000120150102945
:1048F000100110015110001200120152100012019B
:104900003204531000120232045710001400120136
:104910005C1000140132045D1000140212016110D9
:104920000016001201621000160112046310001636
:10493000021204671000160312046B100016041212
:10494000046F100016051204731000160612047787
:104950001000160712047B1000160812047F1000C6
:10496000180012018310001801320484100018028C
:104970001001881000180310028910001805100299
:104980008B100118001201831001180132048D10E0
:104990000118021001911001180310029210011861
:1049A000051002941002180012018310021801323F
:1049B00004961002180210019A1002180310029BAC
:1049C0001002180510029D10031800120183100335
:1049D000180132049F100318021001A310031803DA
:1049E0001002A4100318051002A610001A001201EC
:1049F000A810001A011204A910001A021204AD1026
:104A0000001A031204B110001A041204B510001A9F
:104A1000051204B910001A061204BD10001A07127C
:104A200004C110001A081204C510011A001201A8CE
:104A300010011A011204C910011A021204CD10014A
:104A40001A031204D110011A041204D510011A0518
:104A50001204D910011A061204DD10011A071204FB
:104A6000E110011A081204E510021A001201A81040
:104A7000021A011204E910021A021204ED10021ABD
:104A8000031204F110021A041204F510021A05129E
:104A900004F910021A061204FD10021A071204018A
:104AA00011021A0812040511031A001201A81003BA
:104AB0001A0112040911031A0212040D11031A0338
:104AC00012041111031A0412041511031A05120419
:104AD0001911031A0612041D11031A0712042111D9
:104AE000031A0812042511801F0010042911002147
:104AF00000020466010121000201D8000221001019
:104B0000012D1103210000025A0104210002025C60
:104B1000010621000204D9000060000001DD00014F
:104B2000600012010E480160010201DE0001600216
:104B30000202DF000160030202E1000160040202E0
:104B4000E3000160050202E5000160060202E700E1
:104B50000160070202E9000160080202EB00026046
:104B60000012010E480260010201ED000260020223
:104B700002EE000260030202F0000260040202F290
:104B8000000260050202F4000260060202F6000262
:0F4B900060070202F8000260080202FA008200C9
:104BA000D9CFE6FFE1CFD9FF410EE126F250800BCD
:104BB00001E0010EE76E400EE7CFDBFFFD0EDB509C
:104BC0003F0B0101D86F0101D851106E116AD95005
:104BD000FD0FE96EFF0EDA20EA6E1050EE5E115006
:104BE000ED5AD950F90FE96EFF0EDA20EA6EEE5059
:104BF000ED1001E1CAD0400EE66EE66AFD0EDBCF95
:104C000010F0FE0EDBCF11F0126A10C0E6FF11C0EB
:104C1000E6FF12C0E6FFD9CFE6FFDACFE6FF94EC5D
:104C200028F0136E070EE15E1350400E0101D8808C
:104C3000D8550101D76FF90EDBCF10F0FA0EDBCF9C
:104C400011F00101D751126E136A1250105C13500B
:104C5000115803E2F90EDBCFD7F10101D751E66E0F
:104C6000E66AFB0EDBCFE6FFFC0EDBCFE6FFD9CF1B
:104C700012F0DACF13F00101D85100011224106EA6
:104C8000000E1320116E10C0E6FF11C0E6FF69ECA4
:104C900028F0146E060EE15E14500101D751106E1B
:104CA000116AD950F90FE96EFF0EDA20EA6E105042
:104CB000EE5E1150ED5A0101D751106E116AD950B4
:104CC000FB0FE96EFF0EDA20EA6E1050EE2611504F
:104CD000ED227FB2FED7FD0EDBCFF6FFFE0EDBCF5F
:104CE000F7FFF86AF29E04007F8E7F9C7F847F88A6
:104CF000550E7E6EAA0E7E6E7F820000400EDB5047
:104D000002E0F28E01D0F29E0101080ED86F0A0077
:104D10000101D76B400E0101D75D29E2D9CF10F018
:104D2000DACF11F00101D7510F011024E96E000E06
:104D30001120EA6EEF50F56E0F000101D80714E163
:104D4000F29E04007F8E7F9C7F84550E7E6EAA0E9D
:104D50007E6E7F820000400EDB5002E0F28E01D0BA
:104D6000F29E0101080ED86F0101D72BD3D77F9493
:104D70000101D86BD950FD0FE96EFF0EDA20EA6E03
:104D8000400EEE26000EED222CD7410EE15C02E231
:0E4D9000E16AE552E16EE552E7CFD9FF12006D
:024D9E00120001
:104DA00094869488280EC66EC56A130EC86EC76AAC
:104DB00012001F0EC51403E1040EC71401E0F9D759
:104DC0001200F7DFC5801200F4DFC5821200F1DFA8
:104DD000C5841200D9CFE6FFE1CFD9FFEADFFE0E8E
:104DE000DB50C96EE552E7CFD9FF1200D9CFE6FFFD
:104DF000E1CFD9FFE652FE0EDB50E824DF6EFD0E58
:104E0000DB50DF26D6DFDF50C96EE552E552E7CF33
:104E1000D9FF1200D9CFE6FFE1CFD9FFE652C9DFB3
:104E2000C586C7DFC950DF6EC4DFFE0EDB5002E06F
:104E3000C59A01D0C58AC588DF5000D0E552E55239
:104E4000E7CFD9FF1200D9CFE6FFE1CFD9FF020E9D
:104E5000E126DE6ADD6AB5DFE66AFE0EDBCFE6FF3D
:104E6000C5DFE552E552FD0EDBCFE6FFB3DFE552CD
:104E7000FC0EDBCFE6FFAEDFE552A9DF020EE15C00
:104E800002E2E16AE552E16EE552E7CFD9FF120096
:104E9000D9CFE6FFE1CFD9FFE65293DFE66AFE0EF7
:104EA000DBCFE6FFA3DFE552E552FD0EDBCFE6FFE9
:104EB00091DFE55289DF010EE66EFE0EDBCFE6FFE5
:104EC00095DFE552E552FA0EDBCFF3FFDB06F35038
:104ED000010812E2010EE66E9DDFE552E66EFB0E62
:104EE000DBCFE9FFDB2AFC0EDBCFEAFF01E3DB2AA5
:104EF000E552E750EF6EE7D7E66A8CDFE552E66EE3
:104F0000FB0EDBCFE9FFDB2AFC0EDBCFEAFF01E380
:104F1000DB2AE552E750EF6E5ADFE552E552E7CF64
:044F2000D9FF1200A3
:0C4F2400D8CFE4FFE0CFE4FFE46EDACF6A
:104F3000E4FFE2CFDAFFE9CFE4FFEACFE4FFF6CF08
:104F4000E4FFF7CFE4FFF5CFE4FFF3CFE4FFF4CFC6
:104F5000E4FFFACFE4FF00EE00F0100EE80403E3F4
:104F6000EECFE4FFFBD700EE10F00D0EE80403E3F4
:104F7000EECFE4FFFBD7E6529EA210D09E92FDEC4E
:104F800010F09EA20AD0000EE66EE66A040EE66EEF
:104F9000F4EC12F0E552E552E5520AD0000EE66E4E
:104FA000E66A020EE66EF4EC12F0E552E552E552C6
:104FB000E55200EE1CF00D0EE80403E3E5CFEDFF33
:104FC000FBD700EE0FF0100EE80403E3E5CFEDFF92
:104FD000FBD7E5CFFAFFE5CFF4FFE5CFF3FFE5CF51
:104FE000F5FFE5CFF7FFE5CFF6FFE5CFEAFFE5CF29
:104FF000E9FFE5CFDAFFE550E5CFE0FFE5CFD8FFE9
:10500000100025EC00F0E8EC05F098EC08F07D0EBF
:10501000CA6E7C0ECB6ECC6A9E929F929D82D08E81
:10502000F28CF28E0400EBEC14F004008BEC06F032
:04503000F9D712009A
:0C503400240EF66E000EF76E000EF86EF3
:1050400001010900F550BF6F0900F550C06F03E181
:10505000BF6701D03DD00900F550BA6F0900F55087
:10506000BB6F0900F550BC6F09000900F550E96EEF
:105070000900F550EA6E090009000900F550BD6FFE
:105080000900F550BE6F09000900F6CFC1F1F7CF56
:10509000C2F1F8CFC3F1BAC1F6FFBBC1F7FFBCC183
:1050A000F8FF0101BD5302E1BE5307E00900F550CE
:1050B000EE6EBD07F8E2BE07F9D7C1C1F6FFC2C167
:1050C000F7FFC3C1F8FF0101BF07000EC05BBFD7E8
:0250D0001200CC
:0E50D200D9CFE6FFDACFE6FFFA0EE3CFD9FF23
:1050E000FB0EE3CFDAFFFC0EE3CFE9FFFD0EE3CFCB
:1050F000EAFFE9CFF3FFEACFF4FFF80EE35003E154
:10510000F90EE35008E0F80EE30602E2F90EE306BA
:10511000DECFEEFFF2D7FF0EE3CFDAFFE552FF0E50
:10512000E3CFD9FFE5521200FB0EE3CFF6FFFC0EF2
:10513000E3CFF7FFFD0EE3CFF8FFFE0EE3CFE9FF6D
:10514000FF0EE3CFEAFFE9CFF3FFEACFF4FFF90E5A
:10515000E35003E1FA0EE35009E0F90EE30602E240
:0E516000FA0EE3060900F5CFEEFFF1D71200BC
:02516E00036AD2
:10517000026A016A006A200EE76ED890043605368E
:105180000636073600360136023603360950005C13
:105190000A5001580B5002580C50035809E30950AB
:1051A000005E0A50015A0B50025A0C50035A042A4E
:0651B000E72EE4D7120017
:0A51B600000000611061206100603C
:1051C0000063000000001081408120812081108157
:1051D00000813081008101100210031004100510BD
:1051E0000610071008101082008200820082000062
:0651F000008100810000B7
:0A51F600036A026A100EE76ED890FB
:1052000006360736023603360B50025C0C50035844
:1052100005E30B50025E0C50035A062AE72EF0D726
:0252200012007A
:0E5222004001080808320105080214010508C1
:10523000020801050802040105080202010508022E
:0A524000020103040202010203024E
:06524A001DEE00F02DEE48
:1052500000F0F86A0F9C1AEC28F003EC00F001EC67
:0652600028F0FBD712004C
:0A526600FF0EE350E84E12000000B6
:0C52700000D000D000D0E82EFAD71200C9
:04527C00000000002E
:0E52800001000000000000000000000000001F
:02528E0000001E
:01529000001D
:08529100000000000000D9003C
:020000040030CA
:0100000014EB
:0100010013EB
:0100020020DD
:010003001AE2
:010005008971
:0100080000F7
:01000900C036
:01000A000FE6
:01000B00E014
:01000C000FE4
:01000D0040B2
:0200000400F00A
:050000000000000000FB
:00000001FF
